:020000040800F2
:10000000601C002005010008891800083913000849
:1000100071170008390B0008432E0008000000008B
:10002000000000000000000000000000E11B0008CC
:10003000FF11000800000000191A0008192000082C
:100040001F0100081F0100081F0100081F01000810
:100050001F0100081F0100081F0100081F01000800
:100060001F0100081F0100081F0100081F010008F0
:100070001F0100084D0F00081F0100081F010008A4
:10008000950F00081F0100081F0100081F0100084C
:100090001F0100081F0100081F0100081F010008C0
:1000A0001F0100081F0100081F0100081F010008B0
:1000B00015230008852400081F0100081F010008FF
:1000C0001F0100081F0100081F0100081F01000890
:1000D0001F010008D9280008012A0008952B0008F4
:1000E0001F0100081F0100081F010008DFF810D0E1
:1000F00000F0A0FC00480047CD3C0008AFF30080B2
:10010000601C00200648804706480047FEE7FEE7DF
:10011000FEE7FEE7FEE7FEE7FEE7FEE7FEE7FEE7B7
:1001200075200008ED00000810B5431A934209D26B
:100130008318881803E010F8011D03F8011D521EF2
:10014000F9D210BD40EA01039B0703D009E008C9BA
:10015000121F08C0042AFAD203E011F8013B00F88C
:10016000013B521EF9D210BDD2B201E000F8012BC2
:10017000491EFBD270470022F6E710B513460A4627
:1001800004461946FFF7F0FF204610BD30B504467F
:100190000020034600E05B1C934203D2E05CCD5C90
:1001A000401BF8D030BDF0B480EA0102D40F420009
:1001B000B2EB410F02D20246084611464A0042D035
:1001C000C30DDDB2C1F3C752AD1A202D35DAC1F32C
:1001D000160141F4000204B15242C5F1200602FAB0
:1001E00006F12A411044B3EBD05F23D0C4B1012DF6
:1001F000A0EBC35009DCF0BC4FF0004202EAC3524E
:10020000DBB200F5000000F0F4BA400000F18070AD
:1002100000EBC350A0F1807040EAD170490009E0C2
:10022000490841EAC071A0EBC35000F50000400846
:1002300000EBC350F0BC00F0D3BA6142012202EBE4
:100240004101001BF6E7F0BC704781F00041AAE7CE
:1002500080F00040A7E780EA010210B502F00043F9
:10026000400022D04A001FD0010E01EB1261C0F302
:100270005600C2F3560240F4000042F40002A0FB14
:10028000022000047F39140400D0401C50EA1240C0
:1002900001D44000491EC2B20C0604EBD010401C31
:1002A0004008802A02D003E0002010BD20F00100A9
:1002B000002900DA0020184310BD30B480EA0102A2
:1002C00002F0004530F0004221F0004013D090B120
:1002D000C30DD40DC2F31601C0F31600E41A41F4A5
:1002E000000140F400027D34914201D3641C00E01F
:1002F0004900002C02DA30BC002070474FF40000A7
:100300000023914201D3891A034340084FEA410177
:10031000F7D151B1914202D14FF0004105E002D234
:100320004FF0010101E06FF0010103EBC4502844DC
:1003300030BC00F055BA2DE9FE4F804681EA03003B
:10034000C00F0C46009021F0004123F00045B8EBAF
:100350000200A94105D24046214690461C460B4664
:10036000024623F00040104347D0270DC7F30A0090
:10037000C3F30A510290401A019040286BDAC3F38C
:10038000130040F4801B0098924620B10023D2EB6A
:10039000030A63EB0B0B01985946C0F1400250462B
:1003A00000F0FDF906460D4650465946019A00F008
:1003B00005FA10EB08006141002487EA115284EA33
:1003C000E7731A4340D0009A62B3019A012A4FEAB8
:1003D000075215DC001B61EB02014FF0004202EAFC
:1003E0000752CDE90042001C41F5801132462B46F0
:1003F00000F089FA03B0BDE8F08F40462146F9E7E6
:10040000001B61EB0201001C41F5801300185B41E9
:100410002018A2F5001747EB030140EAD570B61982
:100420006D4111E06D084FEA360645EAC0754FEAA6
:100430000752001B61EB0201001C41F580114908C5
:100440004FEA30000019514132462B4603B0BDE857
:10045000F04F00F049BA0098012240000023D0EB91
:10046000020263EBE073009821464FEAE074B8EBB8
:10047000000061EB0401E9E783F000435BE781F0F2
:10048000004158E72DE9FE4F81EA030404F00044DF
:1004900021F0004100944FF0000B23F0004350EA9C
:1004A00001045ED052EA03045BD0C3F30A54C1F3E3
:1004B0000A552C44A4F2F3340194A0FB0254C1F376
:1004C000130141F48011C3F3130343F4801301FBC0
:1004D000024400FB034E840A970A44EA815447EA27
:1004E0008357A4FB076802958D0A05FB07854FEA31
:1004F000932C04FB0C542705029D4FEA065847EA4B
:100500001637B5EB08056EEB070C870E920E47EA1F
:10051000811742EA8312A7FB0201B6EB0B0164EBE1
:1005200000042B0D43EA0C335E1844EB1C50DA46F2
:100530005146E7FB0201C5F313044FEA0B3343EACC
:1005400014534FEA0432019C43EA0603A4F10C045D
:100550000294009CCDE900B400F0D5F903B0BDE8E9
:10056000F08F00200146F9E72DE9F04D81EA030400
:1005700004F0004B21F0004514464FF0000A23F030
:10058000004150EA050220D054EA01021DD0C5F313
:100590000A570246C5F31303C1F31300C1F30A5609
:1005A00040F4801543F48013A7EB0608101BD646D1
:1005B00008F2FD3873EB050002D308F1010801E0F1
:1005C00092185B41B8F1000F03DA00200146BDE844
:1005D000F08D00204FF48011064684460EE0171B74
:1005E00073EB050705D3121B63EB050306434CEAC7
:1005F000010C49084FEA300092185B4150EA0107AC
:10060000EDD152EA030012D082EA040083EA050128
:10061000084305D0101BAB4106D20122002306E09F
:1006200000224FF0004302E06FF0010253101AEB7A
:1006300006004CEB085110EB0A0041EB0B01BDE842
:10064000F04D00F051B9C10F80EAE0700844CA07CC
:100650009623002100F0CDB896230022114600F029
:10066000C8B820F00040C10DC0F3160040F40000EF
:100670007F2901DA00207047962903DCC1F1960139
:10068000C840704796398840704700F0004230F00B
:1006900000400AD0C10D01F56071C0F3160042EAB6
:1006A0000151C208400711437047002001467047BE
:1006B00001F0004330B421F0004150EA010206D0BD
:1006C0000A0DA2F56072C1F31301002A02DC30BCEE
:1006D00000207047440F44EAC104C100E01830BC58
:1006E00000EBC25000F07CB8002801DBC0F10040F4
:1006F000002901DBC1F1004181427047002801DB84
:10070000C0F10040002901DBC1F10041884270477F
:1007100030B50B46014600202022012409E021FAD1
:1007200002F59D4205D303FA02F5491B04FA02F5CE
:100730002844151EA2F10102F1DC30BD2DE9F05F65
:100740000546002092469B46884606468146402440
:100750001BE0284641464746224600F07DF95346B5
:100760005A46C01A914110D311461846224600F04D
:1007700016F82D1A67EB01084F462246012000218A
:1007800000F00DF817EB00094E41201EA4F1010402
:10079000DFDC484631462A464346BDE8F09F202A22
:1007A00004DB203A00FA02F1002070479140C2F1C8
:1007B000200320FA03F3194390407047202A06DBF8
:1007C000CB17203A41FA02F043EAE07306E041FA1F
:1007D00002F3D040C2F1200291400843194670470D
:1007E0000029A8BF7047401C490008BF20F0010045
:1007F000704710B4B0FA80FC00FA0CF050EA010423
:1008000004BF10BC704749B1CCF1200421FA04F4B4
:1008100011FA0CF118BF012121430843A3EB0C018D
:10082000CB1D4FEA00614FEA102042BF002010BCF0
:10083000704700EBC35010440029A4BF10BC7047A0
:10084000401C490008BF20F0010010BC7047F0B404
:10085000002802DCF0BC00207047C0F3C751C0F391
:10086000160040F40000CA0701D14000491E3F2293
:1008700002EB6105002211464FF4000626FA01F34F
:100880001344D418844201D8001B1A464000491C66
:100890001729F3DD5100814202D24FF0FF3100E011
:1008A000002102EBC550F0BCFFF79ABF10B5410024
:1008B0000CD0C0F3C751962908DC7E2909DC06DB81
:1008C000410204D000F0004040F07E5010BD0020F6
:1008D00010BDC1F19604C4F1200100FA01F1E0401D
:1008E000FFF77EFFA04010BD10B5141E73F1000489
:1008F00008DA401C41F1000192185B411A4301D112
:1009000020F0010010BD2DE9F04D92469B4611B13B
:10091000B1FA81F202E0B0FA80F220329046FFF79D
:100920003EFF04460F4640EA0A0041EA0B015346E7
:100930005A46084313D0114653EA010019D0C8F1B2
:100940004002504600F088F805460E46504659468B
:100950004246FFF724FF084305D0012004E020466B
:100960003946BDE8F08D0020054346EAE0762C4389
:1009700037430A986305E40AA0EB08000022FD0A49
:1009800044EA47540A3002D500200146E9E7010550
:1009900010196941DDE9084500196941BDE8F04DCC
:1009A000A2E700F0004220F00040C10DC0F31600A5
:1009B00040F400007F2901DA00207047962903DC0B
:1009C000C1F19601C84001E096398840002AF4D070
:1009D00040427047C1F30A52C1F3130140F2FF33A2
:1009E00041F480119A4202DA00200146704740F239
:1009F00033439A42A2F2334202DC524200F02CB856
:100A0000FFF7CDBE30B5041E71F1000404DB4FF0DA
:100A10000044404264EB0101141E73F1000405DB45
:100A20001C464FF00043524263EB0403994208BF57
:100A3000904230BD064C074D06E0E06840F00103EF
:100A400094E8070098471034AC42F6D3FFF752FB06
:100A50001044000830440008202A04DB203A21FA20
:100A600002F00021704721FA02F3D040C2F12002C7
:100A70009140084319467047420005D0C0F3C75261
:100A80005242914201DC0020704700EBC150704798
:100A900070B500241BE0E1B2032002F0F5F9022555
:100AA00000BF00200F4908700121392002F002FA2E
:100AB000052003F0AFF80B48007820B121460AA0CA
:100AC00002F094FA70BD6D1E002DEAD1641C7F2CDB
:100AD000E1DB0BA002F08AFA0FA002F087FA00BF58
:100AE000F0E700008800002066696E64202530323F
:100AF0005820616464722073656E736F720D0A0012
:100B000063616E206E6F742066696E642073656E1B
:100B1000736F720D0A000000706C6561736520636D
:100B20006865636B20796F757220636F6E6E6563A5
:100B300074696F6E0D0A000000BFFEE72DE9FF5FCC
:100B400005460C462E461C48E1680068FFF783FB0B
:100B500003901A48A1680068FFF77DFB02901848CF
:100B600061680068FFF777FB01901648216800680C
:100B7000FFF771FB3146009013480068FFF76BFBED
:100B800083460099FFF70FFB82460199FFF70BFBA5
:100B900081460299FFF759FB80460399FFF755FB01
:100BA0000746206860602660A068E060A76038465D
:100BB00004B0BDE8F09F0000A4000020A0000020C9
:100BC0009C00002098000020940000202DE9F04FA8
:100BD00089B004460E461746B946B24651462948E2
:100BE000FFF739FB49460190FFF767FB83465846FC
:100BF00003F026FA0890584602F03EFF07904FF0A7
:100C0000804003F0E1FA01900899FFF724FB0546C4
:100C1000A8460020069085F00040059029464FF038
:100C20007E50FFF7C0FA04904FF040400799FFF75D
:100C300012FB039029464FF07E50FFF706FB02900F
:100C400040460499FFF739FB206104990698FFF7A5
:100C500034FB6061DDE90410FFF72FFBA061DDE9E3
:100C60000301FFF72AFBE06104990298FFF725FBD7
:100C70002062002060602060E060A06009B0BDE8F4
:100C8000F08F0000DA0FC9402DE9FE4F04460D46F3
:100C9000E168206AFFF7DFFA0290A168E069FFF7D8
:100CA000DAFA82466168A069FFF7D5FA01902168F7
:100CB0006069FFF7D0FA009029462069FFF7CBFA68
:100CC00083460099FFF76FFA81460199FFF76BFAA7
:100CD00080465146FFF7B9FA07460299FFF7B5FA81
:100CE0000646206860602560A068E060A660304627
:100CF000BDE8FE8F2DE9F74F86B0834692465846F1
:100D00000799FFF7A2FA04462046FFF7BEFC074604
:100D1000314A324BFFF7B6FBCDE90201304800689B
:100D2000FFF7B3FCCDE90001DDE90223FFF703FB88
:100D30000546FFF7BDFC2A4908602A48016820469D
:100D4000FFF783FA0390FFF7A0FC0546224A234BE6
:100D5000FFF70AFC0746FFF7ABFC0590214804604B
:100D6000214805990068FFF776FA06461C48016895
:100D70001E480068FFF76FFA074621461C480068C6
:100D8000FFF769FA80463946FFF70DFA0546314606
:100D9000FFF709FA049017490498FFF7AFFC02D255
:100DA0001448049006E000210498FFF79DFC01D24E
:100DB00000200490BAF1010F05D10498FFF751FC0F
:100DC0001FFA80F901E04FF0280949460A4801F06E
:100DD00003FD09B0BDE8F08F7B14AE47E17A843F94
:100DE000D0000020CC000020C4000020C000002063
:100DF000BC0000200000A042002C014010B50446B9
:100E00002B482C49097844542A480078401C032177
:100E100090FBF1F201FB12002649087008460078A9
:100E2000002843D1032224A12148FFF7AFF930B9AC
:100E300001202249087022A002F0D8F832E00322F3
:100E400022A11B48FFF7A2F930B902201B49087004
:100E50001FA002F0CBF825E0032220A11448FFF7E1
:100E600095F930B90320154908701DA002F0BEF8AD
:100E700018E003221DA10E48FFF788F930B90420BD
:100E80000E49087016A002F0B1F80BE0032218A179
:100E90000748FFF77BF928B905200849087015A015
:100EA00002F0A4F8024800210180817010BD00000A
:100EB0004200002045000020313131004100002077
:100EC0005749545F73746172740A00003232320001
:100ED0004354524C5F73746172740A0033333300AD
:100EE0004354524C5F72756E0A0000003434340073
:100EF000353535004354524C5F73746F700A0000EF
:100F000010B500221CE0392802D03F280ED106E09F
:100F10000D4B1B7843F002030B4C23700DE00A4B82
:100F20001B7843F00403084C237000BF064B1B786A
:100F300043F08003044C237000BF00BF401C521CD0
:100F40008A42E0D310BD00008800002010B54FF4A5
:100F5000007000F015F9C0B10C4800F00DF904461E
:100F6000C4F128000A4908854FF4007000F044F8E5
:100F70000021064800F04EF82821044800F03DF911
:100F80000121024800F046F800BF10BD30000240C9
:100F9000F409002010B54FF4001000F0F1F8C0B1D2
:100FA0000C4800F0E9F80446C4F128000A49088515
:100FB0004FF4001000F020F80021064800F02AF855
:100FC0002821044800F019F90121024800F022F814
:100FD00000BF10BD6C000240CA09002000F0805123
:100FE00011B10349086001E0024948607047000000
:100FF000040402400000024000F0805111B1034996
:10100000086001E0024948607047000004040240A3
:101010000000024021B1026842F00102026004E0D7
:1010200002684FF6FE731A400260704701684FF67F
:10103000FE72114001600021016041608160C16069
:101040004B49884208D14A490839496841F00F01A3
:10105000474A083A51608AE045491431884208D12C
:1010600043490839496841F0F001414A083A516062
:101070007DE03F492831884208D13D490839496817
:1010800041F470613A4A083A516070E038493C31A5
:10109000884208D136490839496841F47041344AD8
:1010A000083A516063E032495031884208D13049F2
:1010B0000839496841F470212D4A083A516056E0D8
:1010C0002B496431884208D129490839496841F4DB
:1010D0007001274A083A516049E025497831884231
:1010E00008D123490839496841F07061204A083A1B
:1010F00051603CE01F49884206D1011F096841F058
:101100000F01021F116032E01A491431884208D1E0
:101110001849091F096841F0F001164A121F1160B1
:1011200025E014492831884208D11249091F09686D
:1011300041F470610F4A121F116018E00D493C31F3
:10114000884208D10B49091F096841F47041094AD6
:10115000121F11600BE007495031884207D1054941
:10116000091F096841F47021024A121F116070477B
:1011700008000240080402400146486880B27047F7
:1011800001460020002201F0805313B1054B1A687C
:1011900001E0054B1A6802EA01030BB1012000E0EF
:1011A0000020704700040240000002401AB10368AA
:1011B0000B43036002E003688B430360704710B584
:1011C0000022026847F6F0739A430C6A8B68234347
:1011D0000C6923434C6923438C692343CC69234323
:1011E0004C6A23438C6A23431A430260CB684360F2
:1011F0000B6883604B68C36010BD416070477047E7
:10120000C10000BF0A1EA1F10101FBD1704710B55A
:101210000446204602F0FEFC10BD2DE9F0410246D6
:1012200000250026002000230024002791F803C099
:101230000CF00F0591F803C00CF0100CBCF1000F7E
:1012400003D091F802C04CEA050591F800C0BCF14A
:10125000000F31D0146800202BE04FF0010C0CFA85
:1012600000F3B1F800C00CEA03069E4220D18300CF
:101270004FF00F0C0CFA03F7BC4305FA03FC4CEAE1
:10128000040491F803C0BCF1280F06D14FF0010C03
:101290000CFA00FCC2F814C00AE091F803C0BCF1DB
:1012A000480F05D14FF0010C0CFA00FCC2F810C039
:1012B000401C0828D1D31460B1F800C0BCF1FF0F66
:1012C00034DD546800202EE000F1080C4FF00108D6
:1012D00008FA0CF3B1F800C00CEA03069E4221D1D3
:1012E00083004FF00F0C0CFA03F7BC4305FA03FC24
:1012F0004CEA040491F803C0BCF1280F05D100F1B9
:10130000080C08FA0CF8C2F8148091F803C0BCF17C
:10131000480F07D100F1080C4FF0010808FA0CF84B
:10132000C2F81080401C0828CED35460BDE8F0817C
:10133000416170470161704700BFFEE710B50020B2
:101340000F4908600F48006820F070400D490860A0
:101350000846006840F04050086000200A49C1F883
:101360009C010220FFF74CFF012005490860022084
:10137000FFF746FF00200449C1F8980110BD0000A6
:1013800098812142000C01400080214208B500F004
:1013900089F80121082000F061FBC020ADF80000B1
:1013A00010208DF8030003208DF8020069460A48DA
:1013B000FFF733FF0848006820F0704006490860D6
:1013C0000846006840F0405008600120034908606A
:1013D0000349C1F8980108BD000C01409C812142DD
:1013E0000080214210B500200F4908600F480068B6
:1013F00020F070400D4908600846006840F04050F9
:10140000086001200A49C1F89C010220FFF7F8FE9C
:101410000120054908600220FFF7F2FE0020044980
:10142000C1F8980110BD000098812142000C0140D4
:101430000080214270B5054600241748006820F05E
:101440007040154908600846006840F00040086098
:10145000002616E00020114908600220FFF7D0FEA8
:1014600001200F49C1F898016006040E0B487C3832
:10147000006808B1601CC4B20220FFF7C1FE701CF6
:10148000C6B2082EE6DB15B1FFF758FF01E0FFF703
:10149000A9FF204670BD0000000C01409881214248
:1014A0000080214210B51448006820F070401249B5
:1014B00008600846006840F04050086001200F496D
:1014C0000860002413E001200C4908600520FFF7A4
:1014D00097FE01200A49C1F89C010520FFF790FE04
:1014E0000020064908600520FFF78AFE641C092CCD
:1014F000E9DB00F061F810BD000C01409881214249
:101500000080214270B504461548006820F0704004
:10151000134908600846006840F040500860002009
:1015200010490860002517E0E0090E49091D086010
:101530006006040E0220FFF763FE01200A49C1F88D
:1015400098010220FFF75CFE002006490860022097
:10155000FFF756FE681CC5B2082DE5DB70BD000024
:10156000000C0140988121420080214210B50F48B3
:10157000006820F070400D4908600846006840F09F
:101580004050086001200A4908600A49C1F89801E2
:101590000220FFF735FE0020054908600220FFF712
:1015A0002FFE00200349C1F8980110BD000C014036
:1015B0009C8121420080214210B50F48006820F034
:1015C00070400D4908600846006840F040500860CF
:1015D00000200A4908600A49C1F89C010220FFF76F
:1015E0000FFE0120054908600549C1F89C01022051
:1015F000FFF706FE10BD0000000C0140988121425B
:101600000080214210B500241748006820F0704087
:10161000154908600846006840F000400860012055
:10162000124908600220FFF7EBFD0AE0601CC4B21B
:10163000322C03DDFFF7C0FF012010BD0220FFF7B1
:10164000DFFD0A48803800680028EFD101200749F3
:10165000091F08600220FFF7D3FD00200449C1F8EC
:10166000980100BFE9E70000000C01409C81214285
:10167000008021422DE9F0410746884615461E4666
:101680000024FFF773FF3846FFF73CFFFFF7BAFF70
:10169000012802D10020BDE8F0814046FFF732FF6B
:1016A000FFF7B0FF012801D10020F4E7FFF75EFF4C
:1016B000791CC8B2FFF726FFFFF7A4FF012801D16C
:1016C0000020E8E700240CE0701EA04204D00120B6
:1016D000FFF7B0FE285503E00020FFF7ABFE2855CA
:1016E000641CB442F0D3FFF767FF0120D3E72DE974
:1016F000F04180460D4616461F460024FFF736FF90
:101700004046FFF7FFFEFFF77DFF012802D10020D2
:10171000BDE8F0812846FFF7F5FEFFF773FF0128CB
:1017200001D10020F4E7002409E0305DFFF7EAFE74
:10173000FFF768FF012801D10020E9E7641CBC42E3
:10174000F3D3FFF739FF0120E2E70021C160816098
:10175000416001607047000000B50348FFF7F5FFE6
:101760000248FFF7F2FF00BD400C0020500C0020A3
:1017700000BFFEE708B50121042000F06FF9022048
:10178000ADF8000048208DF8030069460F48FFF7C8
:1017900044FD4FF40060ADF8000010208DF8030008
:1017A00003208DF8020069460848FFF736FD4FF424
:1017B0008050ADF8000010208DF8030003208DF854
:1017C000020069460148FFF728FD08BD00080140F6
:1017D00000B587B0012144F2040000F03FF94FF456
:1017E0000070ADF8180018208DF81B0003208DF84C
:1017F0001A0006A92248FFF710FD4FF48060ADF8EB
:10180000180004208DF81B0006A91D48FFF705FDF0
:101810004FF4E13002900020ADF80C00ADF80E005E
:10182000ADF81000ADF814000C20ADF8120002A9BC
:10183000144801F091FA002240F22771114801F09A
:1018400065FA012240F225510E4801F05FFA40216D
:101850000C4801F0F7F901210A4801F00BFA2520A4
:101860008DF8040000208DF805008DF80600012099
:101870008DF8070001A800F041F807B000BD000096
:101880000008014000380140704700000EB54FF4D9
:10189000A06000F06BF825208DF8080000208DF87E
:1018A00009008DF80A0001208DF80B0002A800F055
:1018B00025F80D208DF8040001208DF805008DF825
:1018C00006008DF8070001A800F018F80122022197
:1018D0000948FFF76BFC10208DF8000001208DF8FF
:1018E000010002208DF8020001208DF803006846F7
:1018F00000F004F80EBD00003000024070B5002179
:1019000000230F22C47804B3154C246804F4E06467
:10191000C4F5E064210AC1F10403CA40447804FA22
:1019200003F184781440214309010E4C0678A15537
:10193000047804F01F050124AC4005786D11AD005A
:1019400005F1E025C5F8004109E0047804F01F0521
:101950000124AC40044D0678761145F8264070BD50
:101960000CED00E000E400E080E100E0024901430A
:10197000024A1160704700000000FA050CED00E01B
:101980002DE9F04106460C46208D132803DA4FF06E
:10199000FF30BDE8F081208DA0F11307002536E06F
:1019A000605DFF2832D1681C205CAA282ED1218DD1
:1019B00005F11300814202DA4FF0FF30E9E76119C7
:1019C00013223046FEF7B0FBB6F8110045F2FF5186
:1019D000884218D1304602F048F8317C884212D152
:1019E00072B6218D05F11300081A1FFA80F805F16F
:1019F0001300211842462046FEF796FBA4F82880E3
:101A000062B60020C5E74FF0FF30C2E76D1CBD4253
:101A1000C6DD4FF0FF30BCE77047000029B1064A31
:101A200052690243044B5A6104E0034A52698243FB
:101A3000014B5A61704700000010024029B1064A6C
:101A4000D2690243044BDA6104E0034AD26982435B
:101A5000014BDA61704700000010024029B1064ACC
:101A600092690243044B9A6104E0034A92698243FB
:101A7000014B9A61704700000010024030B5002110
:101A80000022002400232D4D6D6805F00C0121B1CA
:101A9000042905D0082923D105E0294D056022E05D
:101AA000274D05601FE0254D6D6805F47012234D2C
:101AB0006D6805F48034022505EB92421CB9214D76
:101AC000554305600BE01D4D6D6805F400351DB1F3
:101AD0001C4D5543056002E0194D5543056002E079
:101AE000174D056000BF00BF144D6D6805F0F00193
:101AF0000909154D6B5C0568DD4045600F4D6D684B
:101B000005F4E061090A104D6B5C4568DD408560B5
:101B10000A4D6D6805F46051C90A0B4D6B5C456850
:101B2000DD40C560054D6D6805F44041890B074DEA
:101B30006B5CC568B5FBF3F5056130BD0010024074
:101B400000127A0000093D0014000020240000204B
:101B500000B589B0012140F60400FFF77FFF4FF484
:101B60008070ADF8200018208DF8230003208DF838
:101B7000220008A91848FFF750FB0020ADF8160016
:101B80006320ADF818004720ADF8140000208DF850
:101B90001C0005A9114800F04DFE6020ADF80400BE
:101BA0000220ADF80C000120ADF806004FF4FA70E9
:101BB000ADF80A0001A9094800F0C2FD012107485B
:101BC00000F0EEFC0121054800F008FD012103486A
:101BD00000F0F8FC09B000BD00080140002C0140F5
:101BE000704700002DE9F04104460D4601213920DF
:101BF00001F060F901213F2001F05CF93C480078D8
:101C000000F00200002837D03A48B0F972003A4993
:101C1000096888422AD03748B0F97200364908600E
:101C200008460068FEF70FFD07464FF08E41FEF7AD
:101C300044FB06463149FEF70EFB60623049606A9C
:101C4000FEF77CFFA0628DB1606AFEF71EFD0646BE
:101C500032460B462BA001F0C9F9A06AFEF715FD2C
:101C6000064632460B462BA001F0C0F9204800780A
:101C700020F002001E4908701D48007800F00400A2
:101C8000002832D01B48B0F97E00284909688842F4
:101C900025D01848B0F97E0024490860084600683D
:101CA000FEF7D1FC07464FF08E41FEF706FB0646D5
:101CB0001F49FEF7D0FAA0618DB1606AFEF7E5FC1E
:101CC000064632460B460FA001F090F9A06AFEF7D7
:101CD000DCFC064632460B460EA001F087F90448AC
:101CE000007820F0040002490870BDE8F08100008F
:101CF00088000020200B00208C0000200000FA4407
:101D0000400C00206779726F7A3D252E33660D0AEC
:101D10000000000066696C74657265642067797202
:101D20006F205A3D252E33660D0A000090000020DA
:101D3000000034432DE9FF4F97B092461C46249D86
:101D4000012D01D0022D01D1012000E000201590CD
:101D50004FF040411798FEF7D1FC07D24FF0804179
:101D60001798FEF7C1FC01D2002000E017981490EC
:101D70004FF07E511798FEF76EFA07465146FEF770
:101D800067FA06464FF07E511798FEF764FA074649
:101D90002146FEF75DFA814653493046FEF7AEFC18
:101DA00005D252493046FEF79FFC00D200264E492C
:101DB0004846FEF7A3FC06D24C494846FEF794FC81
:101DC00001D24FF000091598FEF746FC834614999E
:101DD000FEF741FA07464649FEF73DFA8046454878
:101DE00001684046FEF7DFF942490860012D28D11D
:101DF00012AA13A9259801F045FF49461298FEF74B
:101E00002AFA314611901398FEF725FA109011998D
:101E1000FEF7C9F980461598FEF71EFC119036486A
:101E200001681198FEF717FA83464146FEF713FA48
:101E30000746304801683846FEF7B5F92D49086075
:101E400000BF2E492B480068FEF758FC02D22B48F1
:101E500028490860002127480068FEF745FC02D2A7
:101E600000202449086001222548016821480068B3
:101E7000FEF740FF2898FEF708FC074688462046F4
:101E8000FEF703FCCDE912012798FEF7FEFBCDE932
:101E900010012698FEF7F9FBCDE90E011798FEF721
:101EA000F4FBCDE90C0116480068FEF7EEFBCDE926
:101EB0000878CDE90A01DDE91201CDE90601DDE985
:101EC0001001CDE90401DDE90E01CDE90201DDE9F2
:101ED0000C01CDE900010B48DDE90A2301F086F889
:101EE0001BB0BDE8F08F0000CDCCCCBDCDCCCC3D3F
:101EF0000AD7A33CF0000020F40000200000344288
:101F000048000020B843000810B500F001F810BDEB
:101F10000CB50020019000903348006840F48030F8
:101F20003149086000BF3048006800F4003000907C
:101F30000198401C0190009818B90198B0F5A06F65
:101F4000F1D12948006800F4003010B10120009060
:101F500001E0002000900098012843D12348006848
:101F600040F01000214908600846006820F0070092
:101F700008600846006840F0020008601A4840689F
:101F8000194948600846406848600846406840F47F
:101F9000806048600846406820F47C10486008462D
:101FA000406840F4E81048600846006840F08070DF
:101FB000086000BF0C48006800F000700028F9D0ED
:101FC0000948406820F00300074948600846406817
:101FD00040F00200486000BF0348406800F00C0079
:101FE0000828F9D10CBD000000100240002002407A
:101FF000042808D14FF0E021096941F004014FF0B5
:10200000E022116107E04FF0E021096921F00401AD
:102010004FF0E022116170470448036840685A1C81
:1020200040F1000001490A60486070472800002024
:1020300010B56FF00400FFF7DBFF0A4800680A499B
:10204000B0FBF1F0094908800846008800EB400128
:10205000C1EBC0104FF6FF7101EAC00004490880CF
:1020600010BD00000000002000127A0030000020A7
:102070003200002010B51348006840F001001149FB
:10208000086008464068104908400E494860084604
:1020900000680E4908400B4908600846006820F4B3
:1020A000802008600846406820F4FE0048604FF435
:1020B0001F008860FFF728FF4FF0006004490860A8
:1020C00010BD0000001002400000FFF8FFFFF6FE08
:1020D00008ED00E0F0B50C46154600220021068C04
:1020E0004FF6FE773E400684028B018C4FF60C764D
:1020F00032407E1C06EA03162E433243104EB04295
:102100000ED0104EB0420BD0B0F1804F08D00E4E22
:10211000B04205D00D4EB04202D00D4EB04206D1B5
:102120004FF6FD76314044F00106314305E04FF6AD
:10213000F576314044F00106314302830184F0BD5D
:10214000002C014000340140000400400008004021
:10215000000C0040F0B50C46154600220021002678
:10216000078C4FF6EF7C07EA0C070784028B018C83
:102170004FF6FF7707EA041640F6FF473A404FF65E
:10218000FF7707EA03373A434FF6FF7707EA052759
:102190003A43114FB8420ED0104FB8420BD0B0F1B5
:1021A000804F08D00E4FB84205D00E4FB84202D033
:1021B0000D4FB84206D14FF6DF77394046F0100791
:1021C000394305E04FF65F77394044F01007394353
:1021D00002830184F0BD0000002C01400034014066
:1021E0000004004000080040000C0040F0B50C4620
:1021F0001546002200210026078C4FF6FF6C07EAE7
:102200000C070784828B018C4FF6FF7707EA0426C0
:102210004FF60C773A404FF6FF7707EA03172F4344
:102220003A43114FB8420ED0104FB8420BD0B0F124
:10223000804F08D00E4FB84205D00E4FB84202D0A2
:102240000D4FB84206D14FF6FF57394046F480771C
:10225000394305E04FF2FF57394044F48077394362
:1022600082830184F0BD0000002C01400034014055
:102270000004004000080040000C0040F0B50C468F
:102280001546002200210026078C4EF6FF7C07EA47
:102290000C070784828B018C4FF6FF7707EA043620
:1022A00040F6FF473A404FF6FF7707EA05273A43E3
:1022B0004FF6FF7707EA03373A43114FB8420ED083
:1022C000104FB8420BD0B0F1804F08D00E4FB8423B
:1022D00005D00E4FB84202D00D4FB84206D14DF690
:1022E000FF77394046F48057394305E047F6FF57FA
:1022F000394044F48057394382830184F0BD0000A3
:10230000002C01400034014000040040000800405F
:10231000000C004010B50121880700F092F9012857
:1023200003D10121800700F04AF910BD1FB501213A
:102330000846FFF783FB4FF0804000F0FBF90020D8
:10234000ADF80A00ADF8060040F2E730ADF808003D
:1023500040F2CF20ADF8040000208DF80C0001A958
:102360004FF0804000F066FA0121880700F024F960
:1023700001221146900700F0D4F94FF4A060FFF756
:10238000F5FA1C208DF8000001208DF803008DF86F
:10239000010005208DF802006846FFF7AFFA012121
:1023A000880700F00FF91FBD00B589B00121022098
:1023B000FFF744FB01210420FFF750FBC020ADF8DC
:1023C000200004208DF8230008A92B48FEF725FFE4
:1023D0000020ADF8160029480088ADF8180000204C
:1023E000ADF814008DF81C0005A9254800F022FA6C
:1023F00002A800F08DF90020ADF80800ADF80A0041
:102400000120ADF80C000020ADF80E000F20ADF853
:10241000100002A91A4800F025F90420ADF80800C0
:1024200002A9174800F01EF900231A460321144898
:1024300000F0E3F80121124800F0BEF80122114635
:102440000F4800F06EF94FF4A060FFF78FFA1D20DF
:102450008DF8040001208DF807008DF80500042098
:102460008DF8060001A8FFF749FA0121044800F0A1
:10247000A9F809B000BD0000000801405C00002080
:10248000000400402DE9FC5F01212C4800F0D9F840
:10249000012851D1294800F0D1F80190284800F0D6
:1024A000CDF8044627480068844204D325480068D4
:1024B000A4EB000907E0234800684FF6FF71081AF3
:1024C000204400F10109B9F1000F22D04846FEF77F
:1024D000C3F805461C49FDF7BEFE82461B4800882E
:1024E000FEF7BAF80090FEF7D0F807460022184B26
:1024F000FDF721FF0546FEF7DBF8834651465846B7
:10250000FDF7DBFE05461349FDF7D7FE12490860CB
:1025100002E000201049086010490F480068FEF7EB
:10252000EDF802D20E480C4908600648046001210B
:10253000024800F044F800BFBDE8FC9F00040040E2
:102540000008004050000020ACC527375C00002088
:102550000000F03F0000A041480000200000704251
:10256000000020410EB501210420FFF767FA4FF665
:10257000FF70ADF8040040F2CF20ADF8000000205D
:10258000ADF80200ADF806006946044800F052F9C3
:102590000121024800F016F80EBD000000080040BE
:1025A00021B1028842F08002028004E002884FF6E6
:1025B0007F731A4002807047CA4302827047CA4341
:1025C0000282704721B1028842F00102028004E0D9
:1025D00002884FF6FE731A400280704731B1B0F89E
:1025E000442042F40042A0F8442005E0B0F8442022
:1025F000C2F30E02A0F844207047F0B50C46154611
:102600001E460021002200230189028B038C4FF615
:10261000F877394021434FF6FC473A4040F2011722
:102620003A434FF6DD773B404FF6FF7707EA061750
:102630002F433B43018102830384F0BD0146888C14
:10264000704730B50246002000230024158A05EAB1
:102650000103958905EA010413B10CB1012000E0E2
:10266000002030BD70B505460C46244885420ED08A
:10267000234885420BD0B5F1804F08D021488542D0
:1026800005D02148854202D02048854200D100E093
:1026900000BF208850B92389A28861882846FFF7A7
:1026A00019FDE188284600F099F825E020880428E3
:1026B0000AD12389A28861882846FFF74BFDE1886B
:1026C000284600F094F817E0208808280AD12389CA
:1026D000A28861882846FFF789FDE188284600F036
:1026E00093F809E02389A28861882846FFF7C6FD90
:1026F000E188284600F091F870BD0000002C0140F0
:10270000003401400004004000080040000C00407C
:10271000002101804180012181800021C18001814F
:1027200070471AB183890B43838102E083898B430D
:102730008381704701894FF6F8721140018170471B
:1027400070B5002400220023058C4FF6FE7635403C
:102750000584028C8388048B4FF68F752C40B51E40
:102760002C400D882C43751E2A400D892A434D8824
:102770002A43144DA8420BD0134DA84208D0134D44
:10278000A84205D0124DA84202D0124DA84213D142
:102790004FF6F7752A404D892A434FF6FB752A40BC
:1027A0008D882A434FF6FF652B404FF6FF552B408F
:1027B0008D892B43CD892B4383800483CD888586E7
:1027C000028470BD002C01400034014000400140F3
:1027D000004401400048014081867047028B4FF65B
:1027E000F3731A400283028B0A4302837047028B01
:1027F0004FF2FF331A400283028B4FF6FF7303EA56
:1028000001231A4302837047828B4FF6F3731A40F9
:102810008283828B0A4382837047828B4FF2FF331D
:102820001A408283828B4FF6FF7303EA01231A4317
:1028300082837047002202881D4B98420ED01D4BA8
:1028400098420BD0B0F1804F08D01B4B984205D076
:102850001A4B984202D01A4B984204D14FF68F730C
:102860001A404B881A43174B984207D0164B984290
:1028700004D04FF6FF431A40CB881A4302808B885E
:1028800083850B8803850A4B98420BD0094B9842ED
:1028900008D00E4B984205D00D4B984202D00D4BFC
:1028A000984201D10B7A038601238382704700008E
:1028B000002C0140003401400004004000080040AA
:1028C000000C004000100040001400400040014097
:1028D000004401400048014010B540F225510B482A
:1028E00000F0EAF958B1094800F0A2FAC4B2204653
:1028F000FEF784FA40F22551044800F0ACF94FF499
:102900005871034800F0A7F910BD000000380140DD
:102910000044004000B597B001210846FFF77EF85B
:102920002348FEF783FB23480C9023480D9010208A
:102930000E9013200F900020109080201190002006
:102940001290139014904FF40050159000201690A0
:102950000CA91748FEF733FC15481438FEF766FB40
:1029600014480190154802900020039028200490FC
:102970000020059080200690002007900890099084
:102980004FF400500A9000200B9001A90848143819
:10299000FEF715FC0122022105481438FEF706FC5B
:1029A0000122C0210348001F00F070F917B000BDDC
:1029B000800002400444004090090020CA09002021
:1029C00010B504464AF6FF20208045F2FF50A4F8D7
:1029D0001100204601F049F8207400210748FEF755
:1029E00019FB13210548FEF708FC01210348FEF7F7
:1029F00011FB4FF00070FEF7F1FA10BD80000240AD
:102A00007047000010B586B0044601210520FFF78D
:102A100025F801214804FFF711F80420ADF814004F
:102A200018208DF8170003208DF8160005A91C4802
:102A3000FEF7F3FB0820ADF8140004208DF8170012
:102A400005A91748FEF7E9FB01940020ADF808003E
:102A5000ADF80A00ADF80C000C20ADF80E00002017
:102A6000ADF8100001A90F4800F076F9012240F2FC
:102A700025510C4800F04AF926208DF8000001206D
:102A80008DF801008DF802008DF803006846FEF70E
:102A900035FF0121034800F0EDF806B010BD00003D
:102AA000000801400044004000B597B001210846ED
:102AB000FEF7B4FF2348FEF7B9FA23480C902348E9
:102AC0000D9010200E9013200F9000201090802069
:102AD000119000201290139014904FF40050159014
:102AE000002016900CA91748FEF769FB1548143012
:102AF000FEF79CFA144801901548029000200390BC
:102B00002820049000200590802006900020079047
:102B1000089009904FF400500A9000200B9001A9F2
:102B200008481430FEF74BFB0122022105481430FF
:102B3000FEF73CFB0122C0210348001F00F0A6F86D
:102B400017B000BD1C00024004480040900900205E
:102B5000F409002010B504464AF6FF20208045F213
:102B6000FF50A4F81100204600F07FFF20740021E0
:102B70000748FEF74FFA13210548FEF73EFB0121F7
:102B80000348FEF747FA2020FEF728FA10BD0000A0
:102B90001C0002407047000010B586B004460121B9
:102BA0000920FEF75BFF01218804FEF747FF4FF481
:102BB0008060ADF8140018208DF8170003208DF800
:102BC000160005A91D48FEF728FB4FF40060ADF87C
:102BD000140048208DF8170005A91848FEF71DFBC2
:102BE00001940020ADF80800ADF80A00ADF80C0023
:102BF0000C20ADF80E000020ADF8100001A910481F
:102C000000F0AAF8012240F225510D4800F07EF8AC
:102C100027208DF8000001208DF8010002208DF89A
:102C2000020001208DF803006846FEF767FE0121CF
:102C3000034800F01FF806B010BD0000000C014072
:102C40000048004001F40072B2F5007F00D100BFDF
:102C5000CA430280704710B50022002340F66A1470
:102C6000A14200D100BF0A1201249440A3B2DC4368
:102C7000048010BD21B1828942F40052828104E0B7
:102C800082894DF6FF731A40828170471AB1838A98
:102C90000B43838202E0838A8B4383827047024620
:102CA0000020B1F5007F00D100BF13880B400BB1AD
:102CB000012000E00020704770B502460024002388
:102CC0000025002040F66A16B14200D100BFC1F3D2
:102CD000421501F01F03012606FA03F3012D02D16C
:102CE0009689334006E0022D02D1168A334001E076
:102CF000968A33400C12012606FA04F416883440F2
:102D000013B10CB1012000E0002070BDF0B5034606
:102D1000002400260025002040F66A17B94200D1A1
:102D200000BF1846C1F3421401F01F06012707FA3D
:102D300006F5012C01D10C3004E0022C01D1103039
:102D400000E014301AB107682F43076002E00768FB
:102D5000AF430760F0BD00002DE9F04786B005469F
:102D60000E460024A24600BFA1460027B08900B14C
:102D700000BF2F462C8A4CF6FF700440F0880443B5
:102D80002C82AC894EF6F3100440B0883189084398
:102D9000718908430443AC81AC8A4FF6FF4004407C
:102DA000B0890443AC8201A8FEF768FE1F48874241
:102DB00002D1DDF810A001E0DDF80CA0A88900F434
:102DC000004040B10AEBCA0000EB0A10316849002C
:102DD000B0FBF1F807E00AEBCA0000EB0A1031681B
:102DE0008900B0FBF1F86420B8FBF0F00401200981
:102DF000642101FB1089A88900F4004040B1322011
:102E000000EBC900B0FBF1F000F00700044308E05C
:102E1000322000EB09106421B0FBF1F000F00F004C
:102E200004432C8106B0BDE8F08700000038014063
:102E300001468888C0F308007047C1F30802828009
:102E4000704700BFFEE70000014611B96FF00500B2
:102E50007047024801600020FAE70000740000207B
:102E6000024612B96FF00500704711B96FF0050006
:102E7000FAE703480260034801600020F4E700001D
:102E8000680000206C0000200246032A02D96FF07F
:102E90000500704704480260044801700020044B9C
:102EA000186000BFF5E700008000002078000020D7
:102EB0007C0000202DE9F04105460E46A819902817
:102EC00003D36FF00500BDE8F081254800680328B2
:102ED0003ED12448006810B96FF00400F3E74FF6C4
:102EE000FF7000EA4607B7F5807F02DD6FF0030050
:102EF000E9E7E9B21C4A12785206100E3B461B4A1B
:102F0000DFF860C0DCF800C0E04701281FD1184896
:102F1000006810B96FF00400D5E7002410E01348F2
:102F200010F81400012101EB4401104A515C40EA01
:102F3000012000B261190F4A22F81100601C84B20E
:102F4000B442ECD331462846094A1268904702E061
:102F50006FF00500B7E700BF074805600020B2E743
:102F6000800000206C00002078000020200A002053
:102F700070000020200B002084000020014611B9C1
:102F80006FF005007047024801600020FAE700007A
:102F90007000002010B5FEF7F9F950210320FFF76B
:102FA00073FF09490948FFF75BFF0948FFF7E6FF90
:102FB0000848FFF749FF08A000F018F8FDF768FD82
:102FC000FEF7CAFB10BD000075160008EF160008DA
:102FD000010F00080F12000857656C636F6D6520C4
:102FE000746F20757365210D0A0000000FB4054B46
:102FF00010B503A9044A029800F0B4F910BC5DF8BA
:1030000014FB0000613C0008F800002041000802A9
:1030100018BF04200A0E18BF40F001004FF07F4295
:1030200032EA010108BF40F00200012808BF052074
:1030300070470121FDF720BD00210846FDF73DB98D
:103040006FF05E010807FDF717BD00002DE9F04D98
:103050000D4614464FF07F41B1EB440F9EBF4FF039
:10306000FF312960BDE8F08D4FF0004040EA0421B7
:10307000C4F3C750783810F01F024A4B4FEA601C67
:10308000C2F120067B44C4F3C750A0F178004FEA98
:10309000601003EB800053F82C3008BFD0E901C664
:1030A00012D0D0F804C093402CFA06F73B4387684F
:1030B0000CFA02FC27FA06F8C06807FA02F2F040A0
:1030C0004CEA080C42EA0006A3FB0132ACFB01C04B
:1030D000A6FB016101EB0C068E4234BF4FF0010CE0
:1030E0004FF0000CC1186144BCF1000F02D08142C6
:1030F00002D903E0814201D2012000E00020104407
:1031000000F120024FEA92188006CA0C40EA4230D1
:103110004F03C5F80080FDF796FA82463846FDF762
:103120009BFA6FF01201FDF7A7FC07463046FDF74A
:1031300093FA6FF02501FDF79FFC83463946504610
:10314000FDF731F85946FDF72EF800F500666FF3EC
:103150000B0651463046FDF778F83946FDF775F80D
:103160005946FDF775F81049FDF775F807460F4900
:103170003046FDF770F83946FDF715F807460C495B
:103180003046FDF768F83946FDF70DF814F0004FAA
:1031900008BFBDE8F08DC8F1805180F00040296083
:1031A000BDE8F08DA0120000DB0FC92F22AAFD2977
:1031B0000000C92F02E008C8121F08C1002AFAD176
:1031C00070477047002001E001C1121F002AFBD1A7
:1031D000704700000149086070470000FC000020B3
:1031E0002DE9FF5F82B00021DDE90430020DDDF83A
:1031F00040B0034318D044F61050A2F2FF324243CD
:103200001514119801281FD0A5EB0B00401C5FEA94
:10321000000A4FF000064E4FDFF83891B046504696
:1032200015D5CAF1000413E0119801244AA301281E
:1032300001D16FEA0B010298119AC0E90031C0E98F
:10324000024206B0BDE8F09FCBF10000DFE7044684
:103250000021404A491842EB0450CDE9001012E029
:10326000E00707D032463B4640464946FDF70AF99B
:103270008046894632463B4610461946FDF702F91C
:1032800006460F466410002CEAD1DDE90401DDE9B1
:103290000023BAF1000F06DAFDF7F4F842464B4678
:1032A000FDF7F0F805E0FDF75FF942464B46FDF704
:1032B0005BF904460E460022284BFDF7A3FB03D81A
:1032C0004FF0FF30014607E00022254B20463146F3
:1032D000FDF731F8FDF77EFB102409E0002C0ADB36
:1032E0000A220023FDF72AFA039B30321A55641E86
:1032F00050EA0102F2D1641C039AC4F11103144490
:10330000119A012A03D0012208430DD10AE0084393
:1033100004D000204FF0110B119072E7A3EB0B05C6
:103320006D1E0DE05B4504DD4FF0000205F1010567
:1033300004E003DA4FF00002A5F10105002AECD009
:1033400002981199C0E90231C0E9004579E700000F
:10335000000014400000F03F300000000000F04387
:103360000000E03F2DE9FF4F95B09A46884606469B
:103370000025EEE1252877D100242746F94A0121CE
:10338000039400E0044316F8013F203B01FA03F0E8
:103390001042F7D130782A2811D06FF02F033078FF
:1033A000A0F13002092A16D8039A44F0020402EB75
:1033B000820203EB42021044761C0390EFE758F8B8
:1033C000042B0392002A03DA504244F40054039081
:1033D00044F00204761C30782E2816D116F8010F1E
:1033E00044F004042A280DD06FF02F023078A0F1A9
:1033F0003003092B09D807EB870302EB4303C718F7
:10340000761CF3E758F8047B761C30786C280FD0D4
:1034100006DC4C2817D068280DD06A2814D104E0A7
:10342000742810D07A280FD10DE044F400140AE07B
:1034300044F4801401E044F440147278824202D1D2
:1034400004F58014761C761C307866280BD013DCCB
:10345000582877D009DC002875D04528F6D04628B2
:10346000F4D047281AD193E118E0632835D06428B6
:1034700079D0652812D18BE1702873D008DC6728D9
:10348000F1D069286FD06E280DD06F2806D1ACE03E
:1034900073282CD0752874D0782853D052461799A9
:1034A00090476D1C54E1C4F30250022809D0032850
:1034B0000DD0D8F8001004280DD00D6008F10408D4
:1034C00046E1D8F80010EA17C1E90052F6E7D8F84B
:1034D00000100D80F2E70D70F0E718F8041B8DF86E
:1034E000001000208DF80100EB46012003E058F8A1
:1034F00004BB4FF0FF3061074FF0000102D40DE034
:1035000009F101018946B9420FDA8145F8DB1BF860
:1035100009100029F4D108E009F10101894681422E
:10352000FADB1BF809100029F6D103985346A0EBEB
:10353000090721463846179A00F080FA284400EB24
:10354000090507E044E008E10DE01BF8010B5246D5
:1035500017999047B9F10109F7D2534621463846E9
:10356000179AF2E039E00A21C4F302524FF0000B3F
:103570000091022A06D058F8040BC117032A09D07B
:103580000AE023E008F1070020F00702F2E8020158
:10359000904605E000B2C117042A01D140B2C1171C
:1035A000002906DA0A460021404261EB02012D2281
:1035B00002E0220504D52B228DF80420012203E02D
:1035C000E20701D02022F7E7914657E00A2100E008
:1035D00010214FF0000B00910BE010214FF0000B79
:1035E00044F004040827009103E008204FF0000B8A
:1035F0000090C4F30252022A05D058F8040B0021AF
:10360000032A08D008E008F1070020F00702F2E8DA
:103610000201904603E080B2042A00D1C0B24FF00C
:10362000000922072AD53278702A07D0DDF800C0B9
:103630008CF0100C5CEA0B0C05D00EE040228DF8EB
:103640000420012208E050EA010306D030238DF85F
:1036500004308DF8052002229146009B83F0080378
:1036600053EA0B030AD150EA010201D1620705D5E2
:1036700030228DF804204FF001097F1E3278582A3D
:1036800004D039A20C920CAA02920BE03BA2F9E7FB
:103690005B46009AFDF752F80C9B9B5C029A521E07
:1036A0000292137050EA0102F2D1029804A9081A9A
:1036B00000F1200B600702D524F4803400E00127DC
:1036C0005F4502DDA7EB0B0000E0002000EB0B01E3
:1036D000009003984944401A0390E00306D45346EF
:1036E0002146179A039800F0A9F90544002706E03F
:1036F00001A85246C05D179990476D1C7F1C4F452D
:10370000F6DBE0030CD553462146179A039800F0E8
:1037100095F9054404E030205246179990476D1CF6
:103720000099481E00900029F5DC08E002980299F3
:1037300052460078491C0291179990476D1CBBF1C5
:103740000001ABF1010BF1DC5BE100F065F9054430
:10375000761C307800287FF40DAE19B02846BDE8FD
:10376000F08F00000928010030313233343536370C
:1037700038396162636465660000000030313233BD
:10378000343536373839414243444546000000005D
:10379000600700D4062708F1070020F00700F0E8D2
:1037A0000223804603F0004C5FEA0C0001D097A092
:1037B00009E0200501D596A005E0E00701D095A01D
:1037C00001E0AFF24C001390307823F000436528FD
:1037D0000CD006DC452809D046281DD047287FD1CB
:1037E0003BE0662818D067287AD136E00021112FF7
:1037F00001DB112000E0781CCDE9000104A90CA830
:10380000FFF7EEFCDDE90D010C9A4FF0000B07F11C
:103810000109109200914EE04FF000400097CDE971
:10382000011004A90CA8FFF7DBFCDDE90D020C9BDD
:103830000F994FF0000B91461093009211B9791C2B
:1038400000EB0109B7EB090003D4C0F1FF3B07F11E
:103850000109A9EB0700019042E0012F00DA0127DE
:103860000021112F01DD112000E03846CDE90001D3
:1038700004A90CA8FFF7B4FCDDE90D010C9A009136
:103880004FF0000BB946109221070FD4009A4A4519
:1038900003DA914601E0A9F10109B9F1010F05DD53
:1038A000109AA9F10101515C3029F4D0B84202DA32
:1038B00010F1040F03DA0121CDE9011010E0002816
:1038C00003DC8344A9EB000102E0411C494500DD13
:1038D0008946A0EB0B00401C01904FF00040029085
:1038E000200705D40198484502DB4FF0FF300190D6
:1038F00000208DF84B0002980DF14B07B0F1004FFE
:1039000025D002200C902B200D90029800280CDA74
:10391000404202902D200D9007E00A210298FCF70A
:10392000F7FE3031029007F8011D0C99481E0C90EB
:103930000029F2DC02980028EFD1791E0D9808705A
:10394000307800F0200040F0450007F8020D11A883
:10395000C01BC01D02901398007800B1012000EB3D
:103960000901019801EBE071029801440398401AA3
:10397000401E0390E00306D453462146179A03984D
:1039800000F05CF805441398007818B15246179976
:1039900090476D1CE00323D553462146179A0398A0
:1039A00000F04CF805441BE0BBF1000F07DB00986A
:1039B000584504DD1098179910F80B0001E017998D
:1039C00030205246904701980BF1010B401E05F143
:1039D0000105019004D12E205246179990476D1C85
:1039E000B9F10001A9F10109DEDC05E017F8010BCE
:1039F0005246179990476D1C0299481E0290002963
:103A0000F4DC53462146179A03989EE62D000000E9
:103A10002B000000200000002DE9F04104460025A5
:103A20001E461746880404D405E039462020B047D6
:103A30006D1C641EF9D52846BDE8F0812DE9F041E2
:103A4000044600251E469046C80301D5302700E0F5
:103A50002027880404D505E041463846B0476D1C50
:103A6000641EF9D52846BDE8F08110B504460A2148
:103A7000A01C00F0BFF810BD2DE9F8430446024633
:103A80004F486946B0EB420F09D94FF0E640B0EB22
:103A9000420F94BF00204FF0FF30009030E0494BC0
:103AA00022F00040834271D947492046FCF7D3FBFE
:103AB000FCF7FCFE8046FCF774FF00F0030000906A
:103AC00042494046FCF7C7FB054641494046FCF7E2
:103AD000C2FB06463F494046FCF7BDFB07463E4950
:103AE0004046FCF7B8FB2146FCF7B2FB3946FCF731
:103AF000ACFB3146FCF7A9FB2946FCF7A6FB0446C4
:103B00002546009C002C45DB294614F0010F084691
:103B10001CD0FCF7A0FB06463049FCF79CFB304963
:103B2000FCF796FB3146FCF796FB2E49FCF73BFB76
:103B30003146FCF790FB2946FCF78DFB2946FCF744
:103B400032FB14F0020F1CD0BDE8F883FCF783FBB6
:103B500005462549FCF77FFB2449FCF724FB294651
:103B6000FCF779FB2249FCF71EFB2946FCF773FBA7
:103B70004FF07E51FCF717FB14F0020F08BFBDE8B1
:103B8000F88380F00040BDE8F883FFE71046FFF7B8
:103B90005DFAB4E76800B0F17F4F3CBF4FF07E5054
:103BA000BDE8F88307D14FF00100FFF713FBBDE834
:103BB000F843FFF741BA2846BDE8F843FFF739BAA2
:103BC000B61F927E490E494683F9223F1A61342C72
:103BD0000020A23300A0FD390000C93F336D4C39ED
:103BE000DA82083CA0AA2ABEB93AB2BACA9F2A3DD4
:103BF000DDFFFFBE10B50246002004E012F8013BD5
:103C00004340034CE05C0B1EA1F10101F6D110BD55
:103C1000F44100080146114A12884A434FF0E0235C
:103C20005A6100229A611A46126942F001021A6131
:103C300000BF4FF0E022106900F001021AB100F459
:103C40008032002AF5D04FF0E022126922F0010202
:103C50004FF0E0231A6100229A6170473200002081
:103C600070B504460D46E1B20548FFF7E6F800BF1F
:103C700080210348FFF713F80028F9D0204670BDD3
:103C80000038014030B50346002015E000EB400449
:103C90000D4D15F824409C420CD100EB400405EB7F
:103CA000840464680C6000EB400405EB8404A468A1
:103CB000146030BD441CE0B20428E7D30020086043
:103CC000106000BFF5E70000F8420008A8B0FDF75B
:103CD0003FFFFDF74FFDFEF745FCFEF765FBFEF7E6
:103CE00025FBFEF7A5F9FDF773FDFDF7CFFD4FF4BA
:103CF0000061C148FDF71CFB4FF48051BE48FDF741
:103D000019FBFFF747F94FF4FA70FFF783FF3421EF
:103D10001BA8FCF730FA1220B84988700846807852
:103D2000401E00F0FF0A4FF4E130FEF76BFE4FF447
:103D3000E130FEF731FFFEF7EDFDFEF7B5FE0121A4
:103D4000AF48FDF767F90121AD483C38FDF762F94E
:103D5000AC481A90AC481990002018900024814675
:103D6000AA48DDE91921FCF731FFA948DDE919214D
:103D7000FCF72CFFA748DDE91921FCF727FFA64A2D
:103D8000A649A748FCF722FF34E1A649A648FDF75B
:103D9000F7FD68B9A44881689D48FCF775FF269037
:103DA000A1488078504503D19F48C0789F4908704A
:103DB0009F49A048FDF7E4FD80B99E488168954879
:103DC000FCF762FF27909B484468D0F80C908078FD
:103DD000504503D19748C0789449087093480078BB
:103DE000012865D100211BA8FDF7FCFE8349259819
:103DF00088609148006848608C480078C870084620
:103E0000FEF7A8FE7D48FEF7DBFD7C4988684FF091
:103E10008041FCF752FA0F902799FCF719FA834674
:103E2000FCF733FC05460E4682494868FCF72DFC3A
:103E3000074688462798FCF728FCCDE916017A4901
:103E40004868FCF722FCCDE914016C498868FCF74E
:103E50001CFCCDE9120169494868FCF716FCCDE964
:103E600010017448C078CDE90A78CDE90C560E905F
:103E7000704880786C49C978CDE90810DDE91601F1
:103E8000CDE90601DDE91401CDE904016648807839
:103E90005A49C978CDE90210DDE91201CDE90001E6
:103EA000564881786548DDE91023FFF79FF8A1E0C7
:103EB0005E480078022827D181024F48FDF73AFA80
:103EC00000211BA8FDF78EFE4C49259888605A48B2
:103ED0000068486055480078C8702198C860084656
:103EE000FEF76EFD4548FEF735FE44498978219876
:103EF000CDE90349CDE901100020009025A80DC8A7
:103F00001899FDF717FF75E048480078032828D175
:103F10004FF400613848FDF70DFA00211BA8FDF7AA
:103F200061FE3649259888604348006848603F48EC
:103F30000078C8702198C8600846FEF741FD2F48F8
:103F4000FEF708FE2D4989782198CDE90349CDE98E
:103F500001100120009025A80DC81899FDF7EAFE70
:103F600048E032480078042827D141022248FDF772
:103F7000E1F900211BA8FDF735FE2049259888604E
:103F80002D480068486029480078C8702198C860AA
:103F90000846FEF715FD1948FEF7DCFD174989783C
:103FA0002198CDE90349CDE901100220009025A810
:103FB0000DC81899FDF7BEFE1CE01C4800780528C6
:103FC00018D14FF400610C48FDF7B2F90B49259860
:103FD000886019480068486014480078C8702198C3
:103FE000C8600846FEF7ECFC0448FEF7B3FD0A2063
:103FF000FFF710FEC9E6000000080140900900200C
:104000006C0002400000A040000048430001002076
:10401000240100204801002000007A440000C8422A
:104020006C010020CA090020A309002041000020E3
:10403000F4090020B6090020480000204843000889
:104040002DE9F8430446024652486946B0EB420F58
:1040500009D94FF0E640B0EB420F94BF00204FF07B
:10406000FF30009030E04C4B22F00040834271D989
:104070004A492046FCF7EFF8FCF718FC8046FCF7AD
:1040800090FC00F00300009045494046FCF7E3F83F
:10409000054644494046FCF7DEF80646424940469C
:1040A000FCF7D9F8074641494046FCF7D4F82146C9
:1040B000FCF7CEF83946FCF7C8F83146FCF7C5F8EE
:1040C0002946FCF7C2F804462546009C002C45DB37
:1040D000294614F0010F08461ED0FCF7BCF805462F
:1040E0003349FCF7B8F83349FCF75DF82946FCF78B
:1040F000B2F83149FCF757F82946FCF7ACF84FF015
:104100007E51FCF750F814F0020F08BFBDE8F883A9
:1041100080F00040BDE8F883FCF79DF8064627498B
:10412000FCF799F82649FCF793F83146FCF793F829
:104130002449FCF738F83146FCF78DF82946FCF79E
:104140008AF82946FCF72FF814F0020FE0D1BDE8F9
:10415000F883FFE71046FEF779FFB4E76800B0F197
:104160007F4F09D22846FEF751FF042808BFFEF70B
:1041700067FF2846BDE8F88306D10120FFF72AF83B
:10418000BDE8F843FEF758BF2846BDE8F843FEF700
:1041900050BF0000B61F927E490E494683F9223F68
:1041A0001A61342C0020A23300A0FD390000C93F61
:1041B000B93AB2BACA9F2A3DDDFFFFBE336D4C3912
:1041C000DA82083CA0AA2ABE70B50546FCF73FFB80
:1041D000044620F00040C0F1FF40C00F08D025F099
:1041E0000040C0F1FF40C00F04BF0120FEF7F2FF06
:1041F000204670BD00070E091C1B1215383F3631D2
:1042000024232A2D70777E796C6B6265484F464176
:1042100054535A5DE0E7EEE9FCFBF2F5D8DFD6D166
:10422000C4C3CACD90979E998C8B8285A8AFA6A156
:10423000B4B3BABDC7C0C9CEDBDCD5D2FFF8F1F646
:10424000E3E4EDEAB7B0B9BEABACA5A28F88818636
:1042500093949D9A2720292E3B3C35321F18111626
:1042600003040D0A5750595E4B4C45426F68616616
:1042700073747D7A898E878095929B9CB1B6BFB806
:10428000ADAAA3A4F9FEF7F0E5E2EBECC1C6CFC8F6
:10429000DDDAD3D4696E676075727B7C51565F58E6
:1042A0004D4A4344191E171005020B0C21262F28D6
:1042B0003D3A33344E49404752555C5B7671787FC6
:1042C0006A6D64633E39303722252C2B0601080FB6
:1042D0001A1D1413AEA9A0A7B2B5BCBB9691989FA6
:1042E0008A8D8483DED9D0D7C2C5CCCBE6E1E8EF96
:1042F000FAFDF4F36F12833A110000000000000091
:104300000AD723BE12000000CDCC4CBECDCC4CBE93
:10431000130000007B142EBE7B142EBE1400000080
:104320009A9999BF00000000000000006E83F9A276
:104330002915444ED15727FCC0DD34F5999562DB31
:104340004190433CAB6351FE49443D3078253032C7
:10435000582C2076313D252E32662C20765A313D60
:10436000252E32662C733D25642C4944323D30782D
:10437000253032582C2076323D252E32662C207680
:104380005A323D252E32662C73323D25642C20494D
:1043900044333D3078253032582C2076333D252E5D
:1043A00032662C20765A333D252E32662073333DFB
:1043B00025642C0A00000000546172676574203D7A
:1043C00020252E3266202041637475616C203D20CB
:1043D000252E326620206779726F5A203D20252EC7
:1043E00032662020746172676574313D252E326615
:1043F000202064656C31203D20252E32662020640B
:10440000656C32203D20252E32662020200D0A00CA
:10441000304400080000002000010000B431000812
:104420003045000800010020601B0000C431000876
:1044300000A24A0400000000000000000102030482
:10444000060708090000000001020304010203043A
:10445000060708090204060800000000000000002A
:10446000000000000000000000000000000000004C
:10447000FF05000000000000000000000000000038
:104480000000000000000000000000000500000027
:10449000000000000000000000000000000000001C
:1044A0000000000000000000FF000000000000000D
:1044B00000000000000000000000000000000000FC
:1044C00000000000DF85A43CDF85243DDF85A43C9F
:1044D00071CFC7BF9D2F243F0000A04100002041A5
:1044E000010000000000000000000000000080400B
:1044F000000020420AD7A33C00000000000000009A
:104500000000000000000000000000000000A041CA
:104510000000000000000000000000009A99993E91
:104520000000F0410AD7A3BD000000000000000019
:04000005080000ED02
:00000001FF
